S00B00004C43442E7372656346
S11300000C942A000C943F000C943F000C943F0085
S11300100C943F000C943F000C943F000C943F0060
S11300200C943F000C943F000C943F000C943F0050
S11300300C943F000C943F000C943F000C943F0040
S11300400C943F000C943F000C943F000C943F0030
S11300500C943F0011241FBECFE5D8E0DEBFCDBF16
S113006010E0A0E6B0E0E0E0F2E002C005900D92FE
S1130070A03AB107D9F70E94F2000C94FE000C9448
S1130080000085BB81E082BB82E08A95F1F700C065
S113009012BA87EC90E00197F1F700C000000895D0
S11300A085BB85E082BB82E08A95F1F700C084E0DD
S11300B082BB87EC90E00197F1F700C0000008953F
S11300C0EF92FF920F931F93CF93DF938C017C01E8
S11300D0C0E0D0E006C0F70181917F010E9450008A
S11300E02196F80101900020E9F73197E01BF10B0C
S11300F0CE17DF0780F3DF91CF911F910F91FF900F
S1130100EF90089587E081BB8FEF84BB12BA8FEC28
S113011097E00197F1F700C0000088E30E944100D6
S11301208CE00E94410081E00E9441008FEC97E046
S11301300197F1F700C0000086E00E944100089595
S11301400F931F93CF93DF93CDB7DEB7C054D1097C
S11301500FB6F894DEBF0FBECDBF86B388BB86B39F
S1130160880F88BB80E2E0E6F0E0DE0111960190A2
S11301700D928A95E1F7CE0101960E94600080EC11
S11301800E94410080E2E0E8F0E0DE0191960190F7
S11301900D928A95E1F7CE0181960E9460002FEFBF
S11301A080E792E0215080409040E1F700C00000D9
S11301B007E210E08FE19EE40197F1F700C0000030
S11301C088E10E94410001501109A1F7C05CDF4F92
S11301D00FB6F894DEBF0FBECDBFDF91CF911F9154
S11301E00F9108950E9482008FEF8ABB82E087BB43
S11301F086B38130E9F70E94A000FACFF894FFCFCC
S11302004D6F68616D6D6164204A6176616420524E
S11302106168696D6909093430303039313533002A
S11302204D6F68616D6D616420416D696E20536826
S1130230616D730920202034303031313232330083
S9030000FC
