S00B00004C43442E7372656346
S11300000C942A000C943F000C943F000C943F0085
S11300100C943F000C943F000C943F000C943F0060
S11300200C943F000C943F000C943F000C943F0050
S11300300C943F000C943F000C943F000C943F0040
S11300400C943F000C943F000C943F000C943F0030
S11300500C943F0011241FBECFE5D8E0DEBFCDBF16
S113006011E0A0E6B0E0EAE4F3E002C005900D92EE
S1130070A630B107D9F70E9469010C94A3010C942E
S1130080000085BB81E082BB82E08A95F1F700C065
S113009012BA87EC90E00197F1F700C000000895D0
S11300A085BB85E082BB82E08A95F1F700C084E0DD
S11300B082BB87EC90E00197F1F700C0000008953F
S11300C0EF92FF920F931F93CF93DF938C017C01E8
S11300D0C0E0D0E006C0F70181917F010E9450008A
S11300E02196F80101900020E9F73197E01BF10B0C
S11300F0CE17DF0780F3DF91CF911F910F91FF900F
S1130100EF90089587E081BB8FEF84BB12BA8FEC28
S113011097E00197F1F700C0000088E30E944100D6
S11301208CE00E94410081E00E9441008FEC97E046
S11301300197F1F700C0000086E00E944100089595
S11301400F931F93CF93DF93CDB7DEB7C55AD10971
S11301500FB6F894DEBF0FBECDBF86B388BB86B39F
S1130160880F88BB81E00E94410082E00E94410028
S113017081E2E0E6F0E0DE01119601900D928A95AD
S1130180E1F7CE0101960E9460002FE788E391E039
S1130190215080409040E1F700C0000007E210E0E9
S11301A08FE295E70197F1F700C0000088E10E9413
S11301B0410001501109A1F781E00E9441009FE72D
S11301C028E381E0915020408040E1F700C0000026
S11301D082E00E94410080E00E94410081E2E1E867
S11301E0F0E0DE01929601900D928A95E1F7CE013E
S11301F082960E9460009FE728E381E091502040AE
S11302008040E1F700C0000007E210E08FE295E7CC
S11302100197F1F700C0000088E10E9441000150FD
S11302201109A1F781E00E9441009FE728E381E0E2
S1130230915020408040E1F700C0000082E00E941D
S1130240410084E3E2EAF0E0DE01AD5BBF4F0190E0
S11302500D928A95E1F7CE018D5B9F4F0E9460005D
S113026080EC0E9441008FE2E6EDF0E0DE01A95847
S1130270BF4F01900D928A95E1F7CE0189589F4FA7
S11302800E946000CB55DF4F0FB6F894DEBF0FBE5F
S1130290CDBFDF91CF911F910F910895CF93DF933D
S11302A02FE788E391E0215080409040E1F700C0BF
S11302B00000C7E2D0E08FE39CE90197F1F700C0AA
S11302C0000088E10E9441002197A9F7DF91CF91B6
S11302D008950E9482008FEF8ABB82E087BBB09BA7
S11302E01CC00E94A0000E944E01B09916C018C004
S11302F00E944E01B09911C081E00E9441002FE795
S113030088E391E0215080409040E1F700C0000074
S113031082E00E94410018BAE2CFB099E9CFDFCF62
S113032081E00E9441002FE788E391E02150804062
S11303309040E1F700C0000082E00E94410018BA3A
S10D034080E090E00895F894FFCFE8
S113034A4D6F68616D6D6164204A61766164205203
S113035A6168696D69202020343030303931353391
S113036A004D6F68616D6D616420416D696E205343
S113037A68616D73202020202034303031313232CC
S113038A330020202020202020202020202020206C
S113039A20203129204368616E6765205061737398
S11303AA776F726420202020202020202020202003
S11303BA202020202000202020202020202020204F
S11303CA2020202020203229204C6F67206F75744A
S11303DA202020202020202020202020202020200F
S10903EA20202020000089
S9030000FC
