:100000000C942A000C9434000C9434000C943400AA
:100010000C9434000C9434000C9434000C94340090
:100020000C9434000C9434000C9434000C94340080
:100030000C9434000C9434000C9434000C94340070
:100040000C9434000C9434000C9434000C94340060
:100050000C94340011241FBECFE5D8E0DEBFCDBF25
:100060000E948B000C949E000C94000085BB81E0E4
:1000700082BB82E08A95F1F700C012BA87EC90E06B
:100080000197F1F700C00000089585BB85E082BBB1
:1000900082E08A95F1F700C084E082BB87EC90E0B3
:1000A0000197F1F700C000000895CF93DF9387E038
:1000B00081BB8FEF84BB12BA8FEC97E00197F1F709
:1000C00000C0000088E30E9436008CE00E943600E9
:1000D00081E00E9436008FEC97E00197F1F700C0B5
:1000E000000086E00E943600C0EFDFEFC831D10586
:1000F00020F08FEF0E94450003C080E20E9445007F
:100100002196C034D10591F7DF91CF91089582E116
:100110000E94360008950E94550017BA2FEF89E615
:1001200098E1215080409040E1F700C00000C6B344
:10013000C13009F0FFCF0E948700FACFF894FFCFBB
:00000001FF
