:100000000C942A000C9447000C9447000C94470071
:100010000C9447000C9447000C9447000C94470044
:100020000C9447000C9447000C9447000C94470034
:100030000C9447000C9447000C9447000C94470024
:100040000C9447000C9447000C9447000C94470014
:100050000C94470011241FBECFE5D8E0DEBFCDBF12
:1000600010E0A0E6B0E0EEE8F3E002C005900D92EB
:10007000AC36B107D9F720E0ACE6B0E001C01D9284
:10008000A637B207E1F70E946F010C94C5010C94EA
:100090000000CF92DF92FF920F931F93CF93DF93D5
:1000A000CCE6D0E000E010E00F2EF4E7CF2EF0E039
:1000B000DF2EF02DF990C8010E94BD01F81207C093
:1000C0000F5F1F4FCC15DD05A9F781E301C080E369
:1000D000DF91CF911F910F91FF90DF90CF90089506
:1000E000CF93DF93CDB7DEB72C970FB6F894DEBF72
:1000F0000FBECDBFAC018CE0E0E6F0E0DE01119672
:1001000001900D928A95E1F721E030E0042E02C0C3
:10011000220F331F0A94E2F720952BBB99B39295D7
:1001200096959770953079F0963019F09330F9F4F0
:1001300014C0FA01EE0FFF1F4E0F5F1FFE01E40F08
:10014000F51F838115C0FA01EE0FFF1F4E0F5F1FD1
:10015000FE01E40FF51F82810BC0FA01EE0FFF1FB5
:100160004E0F5F1FFE01E40FF51F818101C080E08B
:100170002C960FB6F894DEBF0FBECDBFDF91CF91A6
:10018000089588BB81E082BB82E08A95F1F700C0C8
:1001900012BA87EC90E00197F1F700C000000895D3
:1001A0008FE081BB8FEF87BB12BA8FEC97E001978E
:1001B000F1F700C0000084E30E94C1008FE00E94BC
:1001C000C10081E00E94C1008FEC97E00197F1F738
:1001D00000C0000086E00E94C1000895EF92FF92E7
:1001E0000F931F93CF93DF931F92CDB7DEB7898311
:1001F000182F8A3231F580916C00811104C082E0A1
:100200000E94C10064C0ECE6F0E001900020E9F734
:100210003297108280E10E94C10080E288BB85E0B5
:1002200082BB82E08A95F1F700C084E082BBA7EC34
:10023000B0E01197F1F700C0000080E10E94C1001A
:1002400046C0833261F581E00E94C10082E00E94D5
:10025000C1000E9449008133D1F400E010E00F2E6C
:10026000F8E0EF2EF0E0FF2EF02DC8010E94BD0156
:100270000E94EE000F5F1F4FE016F106B1F78CE011
:1002800082BB81E090E0909375008093740088E0D9
:10029000ECE6F0E0DF011D928A95E9F718C041E035
:1002A00050E0BE016F5F7F4F8CE690E00E94AD0191
:1002B00018BB85E082BBB2E0BA95F1F700C084E0DC
:1002C00082BB87EC90E00197F1F700C000000F902F
:1002D000DF91CF911F910F91FF90EF9008958FEFD5
:1002E00084BB8FE082BB8FE18ABB0E94D00004E711
:1002F00010E0F801808185BB8091740090917500B9
:10030000009799F4C0E0D0E08FED9EE20197F1F7FD
:1003100000C00000CE010E94700081110E94EE001A
:100320002196C430D10581F7E4CF019711F7C0E0E1
:10033000D0E0EFEDFEE23197F1F700C00000CE0112
:100340000E947000823321F41092750010927400A4
:100350002196C430D10569F7CCCFFB01DC010D90AB
:100360000020E9F711974150504028F001900020FB
:100370000D92C9F708951C920895E199FECF9FBB95
:0E0380008EBBE09A99278DB30895F894FFCFB5
:0C038E003132333435363738392A302309
:00000001FF
