:100000000C942A000C943F000C943F000C943F0089
:100010000C943F000C943F000C943F000C943F0064
:100020000C943F000C943F000C943F000C943F0054
:100030000C943F000C943F000C943F000C943F0044
:100040000C943F000C943F000C943F000C943F0034
:100050000C943F0011241FBECFE5D8E0DEBFCDBF1A
:1000600010E0A0E6B0E0E6EDF1E002C005900D92F0
:10007000AC36B107D9F70E94CF000C94E9000C947C
:100080000000CF93DF93CDB7DEB72C970FB6F8946F
:10009000DEBF0FBECDBFAC018CE0E0E6F0E0DE01DC
:1000A000119601900D928A95E1F721E030E0042E3F
:1000B00002C0220F331F0A94E2F720952BBB99B39D
:1000C000929596959770953079F0963019F0933017
:1000D000F9F414C0FA01EE0FFF1F4E0F5F1FFE016F
:1000E000E40FF51F838115C0FA01EE0FFF1F4E0FBD
:1000F0005F1FFE01E40FF51F82810BC0FA01EE0FB6
:10010000FF1F4E0F5F1FFE01E40FF51F818101C02D
:1001100080E02C960FB6F894DEBF0FBECDBFDF9106
:10012000CF91089588BB81E082BB82E08A95F1F788
:1001300000C012BA87EC90E00197F1F700C0000010
:10014000089587E081BB8FEF87BB12BA8FEC97E0F1
:100150000197F1F700C0000084E30E9492008FE055
:100160000E94920081E00E9492008FEC97E001973C
:10017000F1F700C0000086E00E949200089588BB5D
:1001800085E082BB82E08A95F1F700C084E082BB03
:1001900087EC90E00197F1F700C0000008958FEF21
:1001A00084BB8FE18ABB0E94A100C0E0D0E08FED4C
:1001B0009EE20197F1F700C00000CE010E944100CD
:1001C00085BB81110E94BF002196C430D10579F70B
:0601D000ECCFF894FFCF14
:0C01D6003132333435363738392A3023C3
:00000001FF
