S00E00004B65797061642E73726563B8
S11300000C942A000C943F000C943F000C943F0085
S11300100C943F000C943F000C943F000C943F0060
S11300200C943F000C943F000C943F000C943F0050
S11300300C943F000C943F000C943F000C943F0040
S11300400C943F000C943F000C943F000C943F0030
S11300500C943F0011241FBECFE5D8E0DEBFCDBF16
S113006010E0A0E6B0E0E2E6F1E002C005900D92F7
S1130070AC36B107D9F70E9497000C94AF000C94EA
S11300800000CF93DF93CDB7DEB72C970FB6F8946B
S1130090DEBF0FBECDBFAC018CE0E0E6F0E0DE01D8
S11300A0119601900D928A95E1F721E030E0042E3B
S11300B002C0220F331F0A94E2F720952BBB99B399
S11300C0929596959770953099F018F49330D1F0F5
S11300D023C0963019F0973001F11EC0FA01EE0FDB
S11300E0FF1F4E0F5F1FFE01E40FF51F838116C033
S11300F0FA01EE0FFF1F4E0F5F1FFE01E40FF51F05
S113010082810CC0FA01EE0FFF1F4E0F5F1FFE012C
S1130110E40FF51F818102C001C080E02C960FB668
S1130120F894DEBF0FBECDBFDF91CF9108958FEF5E
S113013084BB8FE18ABBC0E0D0E02FEF80E792E080
S1130140215080409040E1F700C00000CE010E94A1
S1130150410085BB2196C430D10579F7ECCFF894E2
S1050160FFCFCB
S10F01623132333435363738392A302333
S9030000FC
