S00E00004B65797061642E73726563B8
S11300000C942A000C9447000C9447000C9447006D
S11300100C9447000C9447000C9447000C94470040
S11300200C9447000C9447000C9447000C94470030
S11300300C9447000C9447000C9447000C94470020
S11300400C9447000C9447000C9447000C94470010
S11300500C94470011241FBECFE5D8E0DEBFCDBF0E
S113006010E0A0E6B0E0E4E1F3E002C005900D92F8
S1130070A437B107D9F720E0A4E7B0E001C01D928E
S1130080AE37B207E1F70E9452010C9488010C9438
S11300900000909174008091600098130FC0E5E710
S11300A0F0E0A1E6B0E02CE730E091918D91981357
S11300B007C0E217F307C9F781E3089580E30895C1
S11300C080E30895CF93DF93CDB7DEB72C970FB6B7
S11300D0F894DEBF0FBECDBFAC018CE0E8E6F0E0E3
S11300E0DE01119601900D928A95E1F721E030E04E
S11300F0042E02C0220F331F0A94E2F720952BBB73
S113010099B3929596959770953079F0963019F049
S11301109330F9F414C0FA01EE0FFF1F4E0F5F1F66
S1130120FE01E40FF51F838115C0FA01EE0FFF1FD6
S11301304E0F5F1FFE01E40FF51F82810BC0FA0111
S1130140EE0FFF1F4E0F5F1FFE01E40FF51F8181AD
S113015001C080E02C960FB6F894DEBF0FBECDBF71
S1130160DF91CF91089588BB81E082BB82E08A95BC
S1130170F1F700C012BA87EC90E00197F1F700C0E4
S1130180000008958FE081BB8FEF87BB12BA8FEC1C
S113019097E00197F1F700C0000084E30E94B300E8
S11301A08FE00E94B30081E00E94B3008FEC97E0DF
S11301B00197F1F700C0000086E00E94B3000895A3
S11301C01F93CF93DF931F92CDB7DEB78983182F88
S11301D08A3231F580917400811104C082E00E945A
S11301E0B3005BC0E4E7F0E001900020E9F7329748
S11301F0108280E10E94B30080E288BB85E082BB6C
S113020082E08A95F1F700C084E082BBA7ECB0E0FD
S11302101197F1F700C0000080E10E94B3003DC0D7
S1130220833219F581E00E94B30082E00E94B3009A
S11302300E944900813389F489E50E94E00085E445
S11302400E94E00083E50E94E0008CE082BB81E034
S113025090E090937D0080937C0088E0E4E7F0E0F8
S1130260DF011D928A95E9F718C041E050E0BE0114
S11302706F5F7F4F84E790E00E94780118BB85E0B0
S113028082BBB2E0BA95F1F700C084E082BB87EC90
S113029090E00197F1F700C000000F90DF91CF913B
S11302A01F9108958FEF84BB8FE082BB8FE18ABBDF
S11302B00E94C2000CE710E0F801808185BB8091A8
S11302C07C0090917D00892BB9F7C0E0D0E08FEDE0
S11302D09EE20197F1F700C00000CE010E94620087
S11302E081110E94E0002196C430D10581F7E4CF4A
S11302F0FB01DC010D900020E9F7119741505040BB
S113030028F0019000200D92C9F708951C920895D9
S1070310F894FFCF8B
S11303143030303000000000313233343536373871
S1070324392A30231B
S9030000FC
