S00E00004B65797061642E73726563B8
S11300000C942A000C9434000C9434000C943400A6
S11300100C9434000C9434000C9434000C9434008C
S11300200C9434000C9434000C9434000C9434007C
S11300300C9434000C9434000C9434000C9434006C
S11300400C9434000C9434000C9434000C9434005C
S11300500C94340011241FBECFE5D8E0DEBFCDBF21
S11300600E9436000C9457000C9400008FEF84BB60
S11300708FE18ABB41E050E080E090E09A01082ED5
S113008002C0220F331F0A94E2F720952BBB29B339
S113009022952695277025BBE7EAF1E63197F1F71B
S11300A000C0000001968430910541F7E5CFF89433
S10500B0FFCF7C
S9030000FC
