:100000000C942A000C9447000C9447000C94470071
:100010000C9447000C9447000C9447000C94470044
:100020000C9447000C9447000C9447000C94470034
:100030000C9447000C9447000C9447000C94470024
:100040000C9447000C9447000C9447000C94470014
:100050000C94470011241FBECFE5D8E0DEBFCDBF12
:1000600010E0A0E6B0E0EAECF5E002C005900D92E9
:10007000A837B107D9F720E0A8E7B0E001C01D928A
:10008000A238B207E1F70E943E020C94E3020C94FE
:100090000000CF92DF92FF920F931F93CF93DF93D5
:1000A000C8E7D0E000E010E00F2EF0E8CF2EF0E03F
:1000B000DF2EF02DF990C8010E94CE02F81207C081
:1000C0000F5F1F4FCC15DD05A9F781E301C080E369
:1000D000DF91CF911F910F91FF90DF90CF90089506
:1000E000CF93DF93CDB7DEB72C970FB6F894DEBF72
:1000F0000FBECDBFAC018CE0E3E6F0E0DE0111966F
:1001000001900D928A95E1F721E030E0042E02C0C3
:10011000220F331F0A94E2F720952BBB99B39295D7
:1001200096959770953079F0963019F09330F9F4F0
:1001300014C0FA01EE0FFF1F4E0F5F1FFE01E40F08
:10014000F51F838115C0FA01EE0FFF1F4E0F5F1FD1
:10015000FE01E40FF51F82810BC0FA01EE0FFF1FB5
:100160004E0F5F1FFE01E40FF51F818101C080E08B
:100170002C960FB6F894DEBF0FBECDBFDF91CF91A6
:10018000089588BB81E082BB82E08A95F1F700C0C8
:1001900012BA87EC90E00197F1F700C000000895D3
:1001A0008FE081BB8FEF87BB12BA8FEC97E001978E
:1001B000F1F700C0000084E30E94C1008FE00E94BC
:1001C000C10081E00E94C1008FEC97E00197F1F738
:1001D00000C0000086E00E94C1000895EF92FF92E7
:1001E0000F931F93CF93DF931F92CDB7DEB7898311
:1001F000182F8A3231F580917800811104C082E095
:100200000E94C10090C0E8E7F0E001900020E9F70B
:100210003297108280E10E94C10080E288BB85E0B5
:1002200082BB22E02A95F1F700C084E082BB87EC14
:1002300090E00197F1F700C0000080E10E94C1004A
:1002400072C0833209F051C081E00E94C10082E097
:100250000E94C1008091610090916200039709F0B3
:100260005DC0A89A9FEFA0E7B2E09150A040B040D7
:10027000E1F700C0000085B315BA10926200109239
:1002800061000E9449008133F9F400E010E00F2E74
:10029000F8E0EF2EF0E0FF2EF02DC8010E94CE0214
:1002A0000E94EE000F5F1F4F0E151F05B1F78CE087
:1002B00082BB109262001092610081E090E0909306
:1002C00081008093800009C080916100909162005C
:1002D0000196909362008093610088E0E8E7F0E087
:1002E000DF011D928A95E9F71EC041E050E0BE0192
:1002F0006F5F7F4F88E790E00E94BE0218BB85E0E9
:1003000082BBB2E0BA95F1F700C084E082BB87EC13
:1003100090E00197F1F700C0000005C00E9449007D
:10032000813391F6B2CF0F90DF91CF911F910F9152
:10033000FF90EF900895CF92DF92EF92FF920F938C
:100340001F93CF93DF931F92CDB7DEB78983182F0A
:100350008A3231F580917800811104C082E00E94D8
:10036000C10062C0E8E7F0E001900020E9F73297B1
:10037000108280E10E94C10080E288BB85E082BBE0
:1003800082E08A95F1F700C084E082BBA7ECB0E080
:100390001197F1F700C0000080E10E94C10044C045
:1003A000833251F581E00E94C10082E00E94C100C9
:1003B0000F2EF8E7EF2EF0E0FF2EF02D00E010E01A
:1003C0000F2EF0E8CF2EF0E0DF2EF02DF701619137
:1003D0007F01C8010E94D6020F5F1F4FEC14FD047D
:1003E000A9F788E0E8E7F0E0DF011D928A95E9F7D8
:1003F00080E38093600018C041E050E0BE016F5F71
:100400007F4F88E790E00E94BE0218BB85E082BB68
:10041000B2E0BA95F1F700C084E082BBE7ECF0E00F
:100420003197F1F700C000000F90DF91CF911F913D
:100430000F91FF90EF90DF90CF900895CF93DF93CF
:1004400081E38093600014C08FED9EE20197F1F785
:1004500000C00000CE010E94700081110E949B012B
:100460002196C430D10581F780916000813319F461
:10047000C0E0D0E0E9CFDF91CF910895CF93DF9333
:10048000CDB7DEB728970FB6F894DEBF0FBECDBF4D
:1004900081E084BB8FE082BB8FE18ABB0E94D000E9
:1004A00085E0EFE6F0E0DE01119601900D928A956D
:1004B000E1F7FE01369683E0DF011D928A95E9F7A8
:1004C0008E010F5F1F4F0F2EF0E0EF2EF0E0FF2E9A
:1004D000F02D6E01B9E0CB0ED11CF80161918F01B6
:1004E000C7010E94D602FFEFEF1AFF0A0C151D0587
:1004F000A1F780918000909181000097A1F400E025
:1005000010E08FED9EE20197F1F700C00000C801F6
:100510000E94700081110E94EE000F5F1F4F043097
:10052000110579F7E6CF019721F700E010E0AFED74
:10053000BEE21197F1F700C00000C8010E947000F0
:10054000813349F481E00E94C10082E00E94C10031
:100550000E941E020DC0823359F410928100109245
:100560008000939A81E00E94C10082E00E94C10055
:100570000F5F1F4F04301105D1F6BBCFFB01DC012B
:100580000D900020E9F711974150504028F001905C
:1005900000200D92C9F708951C920895E199FECFAD
:1005A0009FBB8EBBE09A99278DB30895262FE199C2
:1005B000FECF9FBB8EBB2DBB0FB6F894E29AE19A9B
:0A05C0000FBE01960895F894FFCFD6
:1005CA003001003132333435363738392A30233066
:0805DA00303030000000000089
:00000001FF
